{"abi":[{"type":"constructor","inputs":[{"name":"_arenaHook","type":"address","internalType":"address"},{"name":"_beneficiary","type":"address","internalType":"address"}],"stateMutability":"nonpayable"},{"type":"receive","stateMutability":"payable"},{"type":"function","name":"L1_CHAIN_ID","inputs":[],"outputs":[{"name":"","type":"uint256","internalType":"uint256"}],"stateMutability":"view"},{"type":"function","name":"L1_UNISWAP_V3_POOL","inputs":[],"outputs":[{"name":"","type":"address","internalType":"address"}],"stateMutability":"view"},{"type":"function","name":"L2_CHAIN_ID","inputs":[],"outputs":[{"name":"","type":"uint256","internalType":"uint256"}],"stateMutability":"view"},{"type":"function","name":"SWAP_TOPIC_0","inputs":[],"outputs":[{"name":"","type":"uint256","internalType":"uint256"}],"stateMutability":"view"},{"type":"function","name":"addTrigger","inputs":[{"name":"orderId","type":"uint256","internalType":"uint256"},{"name":"maker","type":"address","internalType":"address"},{"name":"limitPrice","type":"uint256","internalType":"uint256"},{"name":"isLower","type":"bool","internalType":"bool"}],"outputs":[],"stateMutability":"nonpayable"},{"type":"function","name":"arenaHook","inputs":[],"outputs":[{"name":"","type":"address","internalType":"address"}],"stateMutability":"view"},{"type":"function","name":"beneficiary","inputs":[],"outputs":[{"name":"","type":"address","internalType":"address"}],"stateMutability":"view"},{"type":"function","name":"coverDebt","inputs":[],"outputs":[],"stateMutability":"nonpayable"},{"type":"function","name":"pay","inputs":[{"name":"amount","type":"uint256","internalType":"uint256"}],"outputs":[],"stateMutability":"nonpayable"},{"type":"function","name":"react","inputs":[{"name":"log","type":"tuple","internalType":"struct IReactive.LogRecord","components":[{"name":"chain_id","type":"uint256","internalType":"uint256"},{"name":"_contract","type":"address","internalType":"address"},{"name":"topic_0","type":"uint256","internalType":"uint256"},{"name":"topic_1","type":"uint256","internalType":"uint256"},{"name":"topic_2","type":"uint256","internalType":"uint256"},{"name":"topic_3","type":"uint256","internalType":"uint256"},{"name":"data","type":"bytes","internalType":"bytes"},{"name":"block_number","type":"uint256","internalType":"uint256"},{"name":"op_code","type":"uint256","internalType":"uint256"},{"name":"block_hash","type":"uint256","internalType":"uint256"},{"name":"tx_hash","type":"uint256","internalType":"uint256"},{"name":"log_index","type":"uint256","internalType":"uint256"}]}],"outputs":[],"stateMutability":"nonpayable"},{"type":"function","name":"triggers","inputs":[{"name":"","type":"uint256","internalType":"uint256"}],"outputs":[{"name":"active","type":"bool","internalType":"bool"},{"name":"isLower","type":"bool","internalType":"bool"},{"name":"limitPrice","type":"uint256","internalType":"uint256"},{"name":"orderId","type":"uint256","internalType":"uint256"},{"name":"maker","type":"address","internalType":"address"}],"stateMutability":"view"},{"type":"event","name":"Callback","inputs":[{"name":"chain_id","type":"uint256","indexed":true,"internalType":"uint256"},{"name":"_contract","type":"address","indexed":true,"internalType":"address"},{"name":"gas_limit","type":"uint64","indexed":true,"internalType":"uint64"},{"name":"payload","type":"bytes","indexed":false,"internalType":"bytes"}],"anonymous":false}],"bytecode":{"object":"0x6080604052346100305761001a610014610104565b9061035b565b610022610035565b61152861062d823961152890f35b61003b565b60405190565b5f80fd5b601f801991011690565b634e487b7160e01b5f52604160045260245ffd5b906100679061003f565b810190811060018060401b0382111761007f57604052565b610049565b90610097610090610035565b928361005d565b565b5f80fd5b60018060a01b031690565b6100b19061009d565b90565b6100bd816100a8565b036100c457565b5f80fd5b905051906100d5826100b4565b565b91906040838203126100ff57806100f36100fc925f86016100c8565b936020016100c8565b90565b610099565b610122611b558038038061011781610084565b9283398101906100d7565b9091565b5f1b90565b9061013c60018060a01b0391610126565b9181191691161790565b90565b61015d6101586101629261009d565b610146565b61009d565b90565b61016e90610149565b90565b61017a90610165565b90565b90565b9061019561019061019c92610171565b61017d565b825461012b565b9055565b60081c90565b60018060a01b031690565b6101bd6101c2916101a0565b6101a6565b90565b6101cf90546101b1565b90565b6101db90610165565b90565b90565b90565b6101f86101f36101fd926101de565b610146565b6101e1565b90565b61020c62aa36a76101e4565b90565b7388e6a0c2ddd26feeb64f039a2c41296fcb3f564090565b90565b61023e61023961024392610227565b610146565b6101e1565b90565b61026f7fc42079f94a6350d7e6235f29174924f928cc2ac818eb64fed8004e115fbcca6761022a565b90565b90565b61028961028461028e92610272565b610146565b6101e1565b90565b6102ba7fa65f96fc951c35ead38878e0f0b7a3c744a6f5ccc1476b313353ce31712313ad610275565b90565b5f80fd5b60e01b90565b5f9103126102d157565b610099565b6102df906101e1565b9052565b6102ec906100a8565b9052565b91946103386103429298979561032e60a0966103246103499a61031a60c08a019e5f8b01906102d6565b60208901906102e3565b60408701906102d6565b60608501906102d6565b60808301906102d6565b01906102d6565b565b610353610035565b3d5f823e3d90fd5b906103726103799261036b61051e565b6003610180565b6004610180565b61038b61038660026101c5565b6101d2565b635a6aced0610398610200565b6103a061020f565b926103a9610246565b926103b2610291565b6103ba610291565b916103c3610291565b95843b15610439575f966103eb9488946103f6936103df610035565b9b8c9a8b998a986102c1565b8852600488016102f0565b03925af1801561043457610408575b50565b610427905f3d811161042d575b61041f818361005d565b8101906102c7565b5f610405565b503d610415565b61034b565b6102bd565b61044790610149565b90565b6104539061043e565b90565b61045f90610149565b90565b61046b90610456565b90565b61048261047d62ffffff61044a565b610462565b90565b60081b90565b9061049e610100600160a81b0391610485565b9181191691161790565b6104b190610456565b90565b90565b906104cc6104c76104d3926104a8565b6104b4565b825461048b565b9055565b6104e090610149565b90565b6104ec906104d7565b90565b6104f8906104d7565b90565b90565b9061051361050e61051a926104ef565b6104fb565b825461012b565b9055565b61054261053c61052c61046e565b6105378160026104b7565b6104e3565b5f6104fe565b61055a61055561055061046e565b6101d2565b6105c4565b6105626105ff565b565b9061056e90610171565b5f5260205260405f2090565b9061058660ff91610126565b9181191691161790565b151590565b61059e90610590565b90565b90565b906105b96105b46105c092610595565b6105a1565b825461057a565b9055565b6105da906105d56001916001610564565b6105a4565b565b5f90565b90565b6105f76105f26105fc926105e0565b610146565b6101e1565b90565b6106076105dc565b5061062a62ffffff3b61062261061c5f6105e3565b916101e1565b1460026105a4565b56fe60806040526004361015610015575b3661079b57005b61001f5f356100ce565b80630d152c2c146100c95780631d1deea6146100c45780632f90b184146100bf57806338af3eed146100ba5780633c9ccf78146100b55780637a90b990146100b05780637ce176dd146100ab5780638417d3c2146100a65780638a4efddb146100a1578063a78dd42e1461009c5763c290d6910361000e57610768565b61072f565b610540565b6104b5565b610445565b61035e565b610329565b6102e5565b61026c565b6101d6565b610138565b60e01c90565b60405190565b5f80fd5b5f80fd5b5f80fd5b5f80fd5b90816101809103126100f95790565b6100e6565b9060208282031261012e575f82013567ffffffffffffffff81116101295761012692016100ea565b90565b6100e2565b6100de565b5f0190565b346101665761015061014b3660046100fe565b610b91565b6101586100d4565b8061016281610133565b0390f35b6100da565b5f91031261017557565b6100de565b7388e6a0c2ddd26feeb64f039a2c41296fcb3f564090565b61019a61017a565b90565b60018060a01b031690565b6101b19061019d565b90565b6101bd906101a8565b9052565b91906101d4905f602085019401906101b4565b565b34610206576101e636600461016b565b6102026101f1610192565b6101f96100d4565b918291826101c1565b0390f35b6100da565b90565b90565b90565b61022861022361022d9261020b565b610211565b61020e565b90565b61023c62aa36a7610214565b90565b610247610230565b90565b6102539061020e565b9052565b919061026a905f6020850194019061024a565b565b3461029c5761027c36600461016b565b61029861028761023f565b61028f6100d4565b91829182610257565b0390f35b6100da565b1c90565b60018060a01b031690565b6102c09060086102c593026102a1565b6102a5565b90565b906102d391546102b0565b90565b6102e260045f906102c8565b90565b34610315576102f536600461016b565b6103116103006102d6565b6103086100d4565b918291826101c1565b0390f35b6100da565b61032660035f906102c8565b90565b346103595761033936600461016b565b61035561034461031a565b61034c6100d4565b918291826101c1565b0390f35b6100da565b3461038c5761036e36600461016b565b610376610e90565b61037e6100d4565b8061038881610133565b0390f35b6100da565b61039a8161020e565b036103a157565b5f80fd5b905035906103b282610391565b565b6103bd816101a8565b036103c457565b5f80fd5b905035906103d5826103b4565b565b151590565b6103e5816103d7565b036103ec57565b5f80fd5b905035906103fd826103dc565b565b60808183031261044057610415825f83016103a5565b9261043d61042684602085016103c8565b9361043481604086016103a5565b936060016103f0565b90565b6100de565b34610477576104616104583660046103ff565b92919091611173565b6104696100d4565b8061047381610133565b0390f35b6100da565b90565b61049361048e6104989261047c565b610211565b61020e565b90565b6104a762014a3461047f565b90565b6104b261049b565b90565b346104e5576104c536600461016b565b6104e16104d06104aa565b6104d86100d4565b91829182610257565b0390f35b6100da565b90565b6105016104fc610506926104ea565b610211565b61020e565b90565b6105327fc42079f94a6350d7e6235f29174924f928cc2ac818eb64fed8004e115fbcca676104ed565b90565b61053d610509565b90565b346105705761055036600461016b565b61056c61055b610535565b6105636100d4565b91829182610257565b0390f35b6100da565b9060208282031261058e5761058b915f016103a5565b90565b6100de565b634e487b7160e01b5f52603260045260245ffd5b5490565b5f5260205f2090565b6105bd816105a7565b8210156105d7576105cf6004916105ab565b910201905f90565b610593565b5f1c90565b60ff1690565b6105f36105f8916105dc565b6105e1565b90565b61060590546105e7565b90565b60081c90565b61061a61061f91610608565b6105e1565b90565b61062c905461060e565b90565b90565b61063e610643916105dc565b61062f565b90565b6106509054610632565b90565b61065f610664916105dc565b6102a5565b90565b6106719054610653565b90565b600590610680826105a7565b8110156106d157610690916105b4565b5061069c5f82016105fb565b916106a85f8301610622565b916106b560018201610646565b916106ce60036106c760028501610646565b9301610667565b90565b5f80fd5b6106de906103d7565b9052565b9095949261072d9461071c6107269261071260809661070860a088019c5f8901906106d5565b60208701906106d5565b604085019061024a565b606083019061024a565b01906101b4565b565b346107635761075f61074a610745366004610575565b610674565b916107569593956100d4565b958695866106e2565b0390f35b6100da565b346107965761078061077b366004610575565b6112bf565b6107886100d4565b8061079281610133565b0390f35b6100da565b5f80fd5b356107a981610391565b90565b5f80fd5b5f80fd5b5f80fd5b9035906001602003813603038212156107fa570180359067ffffffffffffffff82116107f5576020019160018202360383136107f057565b6107b4565b6107b0565b6107ac565b90565b61080b816107ff565b0361081257565b5f80fd5b9050359061082382610802565b565b61082e8161019d565b0361083557565b5f80fd5b9050359061084682610825565b565b6fffffffffffffffffffffffffffffffff1690565b61086681610848565b0361086d57565b5f80fd5b9050359061087e8261085d565b565b60020b90565b61088f81610880565b0361089657565b5f80fd5b905035906108a782610886565b565b919060a0838203126108fa576108c1815f8501610816565b926108cf8260208301610816565b926108f76108e08460408501610839565b936108ee8160608601610871565b9360800161089a565b90565b6100de565b61091361090e6109189261019d565b610211565b61020e565b90565b634e487b7160e01b5f52601160045260245ffd5b61093e6109449193929361020e565b9261020e565b9161095083820261020e565b92818404149015171561095f57565b61091b565b90565b61097b61097661098092610964565b610211565b61020e565b90565b90565b60ff1690565b6109a061099b6109a592610983565b610211565b610986565b90565b6109c7906109c16109bb6109cc94610986565b9161020e565b906102a1565b61020e565b90565b90565b6109e66109e16109eb926109cf565b610211565b61020e565b90565b60016109fa910161020e565b90565b90565b5f1b90565b90610a1160ff91610a00565b9181191691161790565b610a24906103d7565b90565b90565b90610a3f610a3a610a4692610a1b565b610a27565b8254610a05565b9055565b916020610a6b929493610a6460408201965f83019061024a565b01906101b4565b565b601f801991011690565b634e487b7160e01b5f52604160045260245ffd5b90610a9590610a6d565b810190811067ffffffffffffffff821117610aaf57604052565b610a77565b610ac8610ac3610acd9261020e565b610211565b61020e565b90565b610ae4610adf610ae99261019d565b610211565b61019d565b90565b610af590610ad0565b90565b610b0190610aec565b90565b90565b67ffffffffffffffff1690565b610b28610b23610b2d92610b04565b610211565b610b07565b90565b5190565b60209181520190565b90825f9392825e0152565b610b67610b70602093610b7593610b5e81610b30565b93848093610b34565b95869101610b3d565b610a6d565b0190565b610b8e9160208201915f818403910152610b48565b90565b610b9c5f820161079f565b610bb5610baf610baa610230565b61020e565b9161020e565b14158015610dc4575b610dc157610c18610c01610be4610bdc610c289460c08101906107b8565b8101906108a9565b5050915050610bfb610bf5826108ff565b916108ff565b9061092f565b610c12670de0b6b3a7640000610967565b9061092f565b610c2260c061098c565b906109a8565b610c315f6109d2565b5b80610c4e610c48610c4360056105a7565b61020e565b9161020e565b1015610dbd57610cc290610c6d610c67600583906105b4565b506109fd565b610c81610c7b5f83016105fb565b156103d7565b610db757610c905f8201610622565b5f14610d935783610cb4610cae610ca960018501610646565b61020e565b9161020e565b105b610cc7575b505b6109ee565b610c32565b6002610cdf91610cd95f808301610a2a565b01610646565b610d20610cec6004610667565b91610d11610cf86100d4565b93849260046020850163c6ed58b960e01b815201610a4a565b60208201810382520382610a8b565b610d2861049b565b90610d336003610667565b6207a1209192610d8a610d78610d72610d6c7f8dd725fa9d6cd150017ab9e60318d40616439424e2fade9c1c58854950917dfc94610ab4565b94610af8565b94610b14565b94610d816100d4565b91829182610b79565b0390a45f610cbb565b83610db1610dab610da660018501610646565b61020e565b9161020e565b11610cb6565b50610cbd565b5050565b50565b50610dd16040820161079f565b610dea610de4610ddf610509565b61020e565b9161020e565b1415610bbe565b60018060a01b031690565b610e08610e0d916105dc565b610df1565b90565b610e1a9054610dfc565b90565b610e2690610aec565b90565b610e3290610aec565b90565b60e01b90565b90505190610e4882610391565b565b90602082820312610e6357610e60915f01610e3b565b90565b6100de565b610e706100d4565b3d5f823e3d90fd5b610e8190610ad0565b90565b610e8d90610e78565b90565b610ed86020610ea6610ea15f610e10565b610e1d565b639b6c56ec90610ecd610eb830610e29565b92610ec16100d4565b95869485938493610e35565b8352600483016101c1565b03915afa8015610f3457610f04915f91610f06575b50610eff610efa5f610e10565b610e84565b61146e565b565b610f27915060203d8111610f2d575b610f1f8183610a8b565b810190610e4a565b5f610eed565b503d610f15565b610e68565b90565b90610f4f610f486100d4565b9283610a8b565b565b610f5b60a0610f3c565b90565b90610f68906103d7565b9052565b90610f769061020e565b9052565b90610f84906101a8565b9052565b5f5260205f2090565b5490565b610f9e81610f91565b821015610fb857610fb0600491610f88565b910201905f90565b610593565b634e487b7160e01b5f525f60045260245ffd5b610fda90516103d7565b90565b60081b90565b90610ff061ff0091610fdd565b9181191691161790565b9061100f61100a61101692610a1b565b610a27565b8254610fe3565b9055565b611024905161020e565b90565b906110335f1991610a00565b9181191691161790565b90565b9061105561105061105c92610ab4565b61103d565b8254611027565b9055565b61106a90516101a8565b90565b9061107e60018060a01b0391610a00565b9181191691161790565b90565b906110a061109b6110a792610af8565b611088565b825461106d565b9055565b9061112060806003611126946110ce5f82016110c85f8801610fd0565b90610a2a565b6110e65f82016110e060208801610fd0565b90610ffa565b6110ff600182016110f96040880161101a565b90611040565b611118600282016111126060880161101a565b90611040565b019201611060565b9061108b565b565b919061113957611137916110ab565b565b610fbd565b908154916801000000000000000083101561116e578261116691600161116c95018155610f95565b90611128565b565b610a77565b906111d593926111c76111d0926111be61118d6005610f39565b956111b5600198959193956111ac6111a3610f51565b9a5f8c01610f5e565b60208a01610f5e565b60408801610f6c565b60608601610f6c565b60808401610f7a565b61113e565b565b906111e190610af8565b5f5260205260405f2090565b60209181520190565b5f7f417574686f72697a65642073656e646572206f6e6c7900000000000000000000910152565b61122a60166020926111ed565b611233816111f6565b0190565b61124c9060208101905f81830391015261121d565b90565b1561125657565b61125e6100d4565b62461bcd60e51b81528061127460048201611237565b0390fd5b61129d9061129861129361128e600133906111d7565b6105fb565b61124f565b6112ab565b565b6112a890610e78565b90565b6112bd906112b83361129f565b61146e565b565b6112c890611278565b565b5f7f496e73756666696369656e742066756e64730000000000000000000000000000910152565b6112fe60126020926111ed565b611307816112ca565b0190565b6113209060208101905f8183039101526112f1565b90565b1561132a57565b6113326100d4565b62461bcd60e51b8152806113486004820161130b565b0390fd5b61135590610aec565b90565b67ffffffffffffffff811161137657611372602091610a6d565b0190565b610a77565b9061138d61138883611358565b610f3c565b918252565b369037565b906113bc6113a48361137b565b926020806113b28693611358565b9201910390611392565b565b606090565b3d5f146113de576113d33d61137b565b903d5f602084013e5b565b6113e66113be565b906113dc565b5f7f5472616e73666572206661696c65640000000000000000000000000000000000910152565b611420600f6020926111ed565b611429816113ec565b0190565b6114429060208101905f818303910152611413565b90565b1561144c57565b6114546100d4565b62461bcd60e51b81528061146a6004820161142d565b0390fd5b9061149561147b30610e29565b3161148e6114888461020e565b9161020e565b1015611323565b806114a86114a25f6109d2565b9161020e565b116114b2575b5050565b5f80916114c16114eb9461134c565b906114d36114ce846109d2565b611397565b90602082019151925af16114e56113c3565b50611445565b5f806114ae56fea2646970667358221220f90c22a84d16dbe61870276827eb97fd7e4e25ad806a643aa496fc44c5705f7a64736f6c634300081a0033","linkReferences":{}},"methodIdentifiers":{"L1_CHAIN_ID()":"2f90b184","L1_UNISWAP_V3_POOL()":"1d1deea6","L2_CHAIN_ID()":"8417d3c2","SWAP_TOPIC_0()":"8a4efddb","addTrigger(uint256,address,uint256,bool)":"7ce176dd","arenaHook()":"3c9ccf78","beneficiary()":"38af3eed","coverDebt()":"7a90b990","pay(uint256)":"c290d691","react((uint256,address,uint256,uint256,uint256,uint256,bytes,uint256,uint256,uint256,uint256,uint256))":"0d152c2c","triggers(uint256)":"a78dd42e"},"id":31}