{"abi":[{"type":"constructor","inputs":[{"name":"_poolManager","type":"address","internalType":"contract IPoolManager"}],"stateMutability":"nonpayable"},{"type":"function","name":"MAX_ITERATIONS","inputs":[],"outputs":[{"name":"","type":"uint256","internalType":"uint256"}],"stateMutability":"view"},{"type":"function","name":"POOL_MANAGER","inputs":[],"outputs":[{"name":"","type":"address","internalType":"contract IPoolManager"}],"stateMutability":"view"},{"type":"function","name":"afterAddLiquidity","inputs":[{"name":"","type":"address","internalType":"address"},{"name":"","type":"tuple","internalType":"struct PoolKey","components":[{"name":"currency0","type":"address","internalType":"Currency"},{"name":"currency1","type":"address","internalType":"Currency"},{"name":"fee","type":"uint24","internalType":"uint24"},{"name":"tickSpacing","type":"int24","internalType":"int24"},{"name":"hooks","type":"address","internalType":"contract IHooks"}]},{"name":"","type":"tuple","internalType":"struct ModifyLiquidityParams","components":[{"name":"tickLower","type":"int24","internalType":"int24"},{"name":"tickUpper","type":"int24","internalType":"int24"},{"name":"liquidityDelta","type":"int256","internalType":"int256"},{"name":"salt","type":"bytes32","internalType":"bytes32"}]},{"name":"","type":"int256","internalType":"BalanceDelta"},{"name":"","type":"int256","internalType":"BalanceDelta"},{"name":"","type":"bytes","internalType":"bytes"}],"outputs":[{"name":"","type":"bytes4","internalType":"bytes4"},{"name":"","type":"int256","internalType":"BalanceDelta"}],"stateMutability":"pure"},{"type":"function","name":"afterDonate","inputs":[{"name":"","type":"address","internalType":"address"},{"name":"","type":"tuple","internalType":"struct PoolKey","components":[{"name":"currency0","type":"address","internalType":"Currency"},{"name":"currency1","type":"address","internalType":"Currency"},{"name":"fee","type":"uint24","internalType":"uint24"},{"name":"tickSpacing","type":"int24","internalType":"int24"},{"name":"hooks","type":"address","internalType":"contract IHooks"}]},{"name":"","type":"uint256","internalType":"uint256"},{"name":"","type":"uint256","internalType":"uint256"},{"name":"","type":"bytes","internalType":"bytes"}],"outputs":[{"name":"","type":"bytes4","internalType":"bytes4"}],"stateMutability":"pure"},{"type":"function","name":"afterInitialize","inputs":[{"name":"","type":"address","internalType":"address"},{"name":"","type":"tuple","internalType":"struct PoolKey","components":[{"name":"currency0","type":"address","internalType":"Currency"},{"name":"currency1","type":"address","internalType":"Currency"},{"name":"fee","type":"uint24","internalType":"uint24"},{"name":"tickSpacing","type":"int24","internalType":"int24"},{"name":"hooks","type":"address","internalType":"contract IHooks"}]},{"name":"","type":"uint160","internalType":"uint160"},{"name":"","type":"int24","internalType":"int24"}],"outputs":[{"name":"","type":"bytes4","internalType":"bytes4"}],"stateMutability":"pure"},{"type":"function","name":"afterRemoveLiquidity","inputs":[{"name":"","type":"address","internalType":"address"},{"name":"","type":"tuple","internalType":"struct PoolKey","components":[{"name":"currency0","type":"address","internalType":"Currency"},{"name":"currency1","type":"address","internalType":"Currency"},{"name":"fee","type":"uint24","internalType":"uint24"},{"name":"tickSpacing","type":"int24","internalType":"int24"},{"name":"hooks","type":"address","internalType":"contract IHooks"}]},{"name":"","type":"tuple","internalType":"struct ModifyLiquidityParams","components":[{"name":"tickLower","type":"int24","internalType":"int24"},{"name":"tickUpper","type":"int24","internalType":"int24"},{"name":"liquidityDelta","type":"int256","internalType":"int256"},{"name":"salt","type":"bytes32","internalType":"bytes32"}]},{"name":"","type":"int256","internalType":"BalanceDelta"},{"name":"","type":"int256","internalType":"BalanceDelta"},{"name":"","type":"bytes","internalType":"bytes"}],"outputs":[{"name":"","type":"bytes4","internalType":"bytes4"},{"name":"","type":"int256","internalType":"BalanceDelta"}],"stateMutability":"pure"},{"type":"function","name":"afterSwap","inputs":[{"name":"","type":"address","internalType":"address"},{"name":"","type":"tuple","internalType":"struct PoolKey","components":[{"name":"currency0","type":"address","internalType":"Currency"},{"name":"currency1","type":"address","internalType":"Currency"},{"name":"fee","type":"uint24","internalType":"uint24"},{"name":"tickSpacing","type":"int24","internalType":"int24"},{"name":"hooks","type":"address","internalType":"contract IHooks"}]},{"name":"","type":"tuple","internalType":"struct SwapParams","components":[{"name":"zeroForOne","type":"bool","internalType":"bool"},{"name":"amountSpecified","type":"int256","internalType":"int256"},{"name":"sqrtPriceLimitX96","type":"uint160","internalType":"uint160"}]},{"name":"","type":"int256","internalType":"BalanceDelta"},{"name":"","type":"bytes","internalType":"bytes"}],"outputs":[{"name":"","type":"bytes4","internalType":"bytes4"},{"name":"","type":"int128","internalType":"int128"}],"stateMutability":"pure"},{"type":"function","name":"allowedBots","inputs":[{"name":"","type":"address","internalType":"address"}],"outputs":[{"name":"","type":"bool","internalType":"bool"}],"stateMutability":"view"},{"type":"function","name":"beforeAddLiquidity","inputs":[{"name":"","type":"address","internalType":"address"},{"name":"","type":"tuple","internalType":"struct PoolKey","components":[{"name":"currency0","type":"address","internalType":"Currency"},{"name":"currency1","type":"address","internalType":"Currency"},{"name":"fee","type":"uint24","internalType":"uint24"},{"name":"tickSpacing","type":"int24","internalType":"int24"},{"name":"hooks","type":"address","internalType":"contract IHooks"}]},{"name":"","type":"tuple","internalType":"struct ModifyLiquidityParams","components":[{"name":"tickLower","type":"int24","internalType":"int24"},{"name":"tickUpper","type":"int24","internalType":"int24"},{"name":"liquidityDelta","type":"int256","internalType":"int256"},{"name":"salt","type":"bytes32","internalType":"bytes32"}]},{"name":"","type":"bytes","internalType":"bytes"}],"outputs":[{"name":"","type":"bytes4","internalType":"bytes4"}],"stateMutability":"pure"},{"type":"function","name":"beforeDonate","inputs":[{"name":"","type":"address","internalType":"address"},{"name":"","type":"tuple","internalType":"struct PoolKey","components":[{"name":"currency0","type":"address","internalType":"Currency"},{"name":"currency1","type":"address","internalType":"Currency"},{"name":"fee","type":"uint24","internalType":"uint24"},{"name":"tickSpacing","type":"int24","internalType":"int24"},{"name":"hooks","type":"address","internalType":"contract IHooks"}]},{"name":"","type":"uint256","internalType":"uint256"},{"name":"","type":"uint256","internalType":"uint256"},{"name":"","type":"bytes","internalType":"bytes"}],"outputs":[{"name":"","type":"bytes4","internalType":"bytes4"}],"stateMutability":"pure"},{"type":"function","name":"beforeInitialize","inputs":[{"name":"","type":"address","internalType":"address"},{"name":"","type":"tuple","internalType":"struct PoolKey","components":[{"name":"currency0","type":"address","internalType":"Currency"},{"name":"currency1","type":"address","internalType":"Currency"},{"name":"fee","type":"uint24","internalType":"uint24"},{"name":"tickSpacing","type":"int24","internalType":"int24"},{"name":"hooks","type":"address","internalType":"contract IHooks"}]},{"name":"","type":"uint160","internalType":"uint160"}],"outputs":[{"name":"","type":"bytes4","internalType":"bytes4"}],"stateMutability":"pure"},{"type":"function","name":"beforeRemoveLiquidity","inputs":[{"name":"","type":"address","internalType":"address"},{"name":"","type":"tuple","internalType":"struct PoolKey","components":[{"name":"currency0","type":"address","internalType":"Currency"},{"name":"currency1","type":"address","internalType":"Currency"},{"name":"fee","type":"uint24","internalType":"uint24"},{"name":"tickSpacing","type":"int24","internalType":"int24"},{"name":"hooks","type":"address","internalType":"contract IHooks"}]},{"name":"","type":"tuple","internalType":"struct ModifyLiquidityParams","components":[{"name":"tickLower","type":"int24","internalType":"int24"},{"name":"tickUpper","type":"int24","internalType":"int24"},{"name":"liquidityDelta","type":"int256","internalType":"int256"},{"name":"salt","type":"bytes32","internalType":"bytes32"}]},{"name":"","type":"bytes","internalType":"bytes"}],"outputs":[{"name":"","type":"bytes4","internalType":"bytes4"}],"stateMutability":"pure"},{"type":"function","name":"beforeSwap","inputs":[{"name":"sender","type":"address","internalType":"address"},{"name":"key","type":"tuple","internalType":"struct PoolKey","components":[{"name":"currency0","type":"address","internalType":"Currency"},{"name":"currency1","type":"address","internalType":"Currency"},{"name":"fee","type":"uint24","internalType":"uint24"},{"name":"tickSpacing","type":"int24","internalType":"int24"},{"name":"hooks","type":"address","internalType":"contract IHooks"}]},{"name":"params","type":"tuple","internalType":"struct SwapParams","components":[{"name":"zeroForOne","type":"bool","internalType":"bool"},{"name":"amountSpecified","type":"int256","internalType":"int256"},{"name":"sqrtPriceLimitX96","type":"uint160","internalType":"uint160"}]},{"name":"","type":"bytes","internalType":"bytes"}],"outputs":[{"name":"","type":"bytes4","internalType":"bytes4"},{"name":"","type":"int256","internalType":"BeforeSwapDelta"},{"name":"","type":"uint24","internalType":"uint24"}],"stateMutability":"nonpayable"},{"type":"function","name":"cancelOrder","inputs":[{"name":"orderId","type":"uint256","internalType":"uint256"},{"name":"key","type":"tuple","internalType":"struct PoolKey","components":[{"name":"currency0","type":"address","internalType":"Currency"},{"name":"currency1","type":"address","internalType":"Currency"},{"name":"fee","type":"uint24","internalType":"uint24"},{"name":"tickSpacing","type":"int24","internalType":"int24"},{"name":"hooks","type":"address","internalType":"contract IHooks"}]}],"outputs":[],"stateMutability":"nonpayable"},{"type":"function","name":"nextOrderId","inputs":[],"outputs":[{"name":"","type":"uint256","internalType":"uint256"}],"stateMutability":"view"},{"type":"function","name":"orders","inputs":[{"name":"","type":"uint256","internalType":"uint256"}],"outputs":[{"name":"maker","type":"address","internalType":"address"},{"name":"sellToken0","type":"bool","internalType":"bool"},{"name":"amountIn","type":"uint128","internalType":"uint128"},{"name":"minAmountOut","type":"uint128","internalType":"uint128"},{"name":"expiry","type":"uint256","internalType":"uint256"},{"name":"active","type":"bool","internalType":"bool"},{"name":"poolId","type":"bytes32","internalType":"bytes32"},{"name":"isHuman","type":"bool","internalType":"bool"}],"stateMutability":"view"},{"type":"function","name":"poolOrders","inputs":[{"name":"","type":"bytes32","internalType":"bytes32"},{"name":"","type":"uint256","internalType":"uint256"}],"outputs":[{"name":"","type":"uint256","internalType":"uint256"}],"stateMutability":"view"},{"type":"function","name":"postOrder","inputs":[{"name":"key","type":"tuple","internalType":"struct PoolKey","components":[{"name":"currency0","type":"address","internalType":"Currency"},{"name":"currency1","type":"address","internalType":"Currency"},{"name":"fee","type":"uint24","internalType":"uint24"},{"name":"tickSpacing","type":"int24","internalType":"int24"},{"name":"hooks","type":"address","internalType":"contract IHooks"}]},{"name":"sellToken0","type":"bool","internalType":"bool"},{"name":"amountIn","type":"uint128","internalType":"uint128"},{"name":"minAmountOut","type":"uint128","internalType":"uint128"},{"name":"duration","type":"uint256","internalType":"uint256"}],"outputs":[{"name":"orderId","type":"uint256","internalType":"uint256"}],"stateMutability":"nonpayable"},{"type":"function","name":"sentinel","inputs":[],"outputs":[{"name":"","type":"address","internalType":"address"}],"stateMutability":"view"},{"type":"function","name":"setSentinel","inputs":[{"name":"_sentinel","type":"address","internalType":"address"}],"outputs":[],"stateMutability":"nonpayable"},{"type":"function","name":"triggerOrder","inputs":[{"name":"orderId","type":"uint256","internalType":"uint256"},{"name":"key","type":"tuple","internalType":"struct PoolKey","components":[{"name":"currency0","type":"address","internalType":"Currency"},{"name":"currency1","type":"address","internalType":"Currency"},{"name":"fee","type":"uint24","internalType":"uint24"},{"name":"tickSpacing","type":"int24","internalType":"int24"},{"name":"hooks","type":"address","internalType":"contract IHooks"}]},{"name":"beneficiary","type":"address","internalType":"address"}],"outputs":[],"stateMutability":"nonpayable"},{"type":"event","name":"OrderCancelled","inputs":[{"name":"orderId","type":"uint256","indexed":true,"internalType":"uint256"},{"name":"maker","type":"address","indexed":true,"internalType":"address"}],"anonymous":false},{"type":"event","name":"OrderExpired","inputs":[{"name":"orderId","type":"uint256","indexed":true,"internalType":"uint256"},{"name":"maker","type":"address","indexed":true,"internalType":"address"}],"anonymous":false},{"type":"event","name":"OrderFilled","inputs":[{"name":"orderId","type":"uint256","indexed":true,"internalType":"uint256"},{"name":"taker","type":"address","indexed":true,"internalType":"address"},{"name":"byReactiveAi","type":"bool","indexed":false,"internalType":"bool"}],"anonymous":false},{"type":"event","name":"OrderPosted","inputs":[{"name":"orderId","type":"uint256","indexed":true,"internalType":"uint256"},{"name":"maker","type":"address","indexed":true,"internalType":"address"},{"name":"isHuman","type":"bool","indexed":false,"internalType":"bool"},{"name":"amountIn","type":"uint128","indexed":false,"internalType":"uint128"},{"name":"minAmountOut","type":"uint128","indexed":false,"internalType":"uint128"}],"anonymous":false},{"type":"error","name":"AmountOverflow","inputs":[]},{"type":"error","name":"InvalidAmounts","inputs":[]},{"type":"error","name":"NotSentinel","inputs":[]},{"type":"error","name":"NotWhitelisted","inputs":[]},{"type":"error","name":"OrderNotActive","inputs":[]},{"type":"error","name":"OrderNotFound","inputs":[]},{"type":"error","name":"PoolMismatch","inputs":[]},{"type":"error","name":"ReentrancyGuardReentrantCall","inputs":[]},{"type":"error","name":"SafeERC20FailedOperation","inputs":[{"name":"token","type":"address","internalType":"address"}]},{"type":"error","name":"Unauthorized","inputs":[]}],"bytecode":{"object":"0x60a06040523461005b5761001961001461012c565b61014d565b610021610060565b612c606102748239608051818181610656015281816119ce01528181611a4c01528181611ad601528181611b1b0152612a0c0152612c6090f35b610066565b60405190565b5f80fd5b601f801991011690565b634e487b7160e01b5f52604160045260245ffd5b906100929061006a565b810190811060018060401b038211176100aa57604052565b610074565b906100c26100bb610060565b9283610088565b565b5f80fd5b60018060a01b031690565b6100dc906100c8565b90565b6100e8906100d3565b90565b6100f4816100df565b036100fb57565b5f80fd5b9050519061010c826100eb565b565b9060208282031261012757610124915f016100ff565b90565b6100c4565b61014a612ed48038038061013f816100af565b92833981019061010e565b90565b6101556101e6565b608052565b90565b90565b90565b61017761017261017c9261015a565b610160565b61015d565b90565b6101896001610163565b90565b5f1b90565b9061019d5f199161018c565b9181191691161790565b6101bb6101b66101c09261015d565b610160565b61015d565b90565b90565b906101db6101d66101e2926101a7565b6101c3565b8254610191565b9055565b6102086101f161017f565b5f6102026101fd61025c565b610270565b016101c6565b565b5f90565b90565b90565b61022861022361022d9261020e565b61018c565b610211565b90565b6102597f9b779b17422d0df92223018b32b4d1fa46e071723d6817e2486d003becc55f00610214565b90565b61026461020a565b5061026d610230565b90565b9056fe60806040526004361015610013575b6111ce565b61001d5f3561016c565b806309dac061146101675780631d92c26d1461016257806321d0ee701461015d578063259982e5146101585780632a58b330146101535780633ded1cb81461014e578063575e24b41461014957806362308e85146101445780636c2bbe7e1461013f5780636fe7e6eb1461013a5780639f063efc14610135578063a85c38ef14610130578063b47b2fb11461012b578063b6a8b0fa14610126578063c0ffd5e314610121578063c3e0858b1461011c578063d10c151d14610117578063d3d368c014610112578063dc98354e1461010d578063e1b4af69146101085763f58c251c0361000e57611199565b611115565b6110df565b611070565b610fc4565b610ea0565b610e3a565b610d60565b610cb1565b610bc9565b6108df565b6108a6565b6107d6565b6106ce565b610618565b6104fc565b61046a565b6103f5565b6103bc565b610282565b6101e1565b60e01c90565b60405190565b5f80fd5b5f80fd5b5f80fd5b60018060a01b031690565b61019890610184565b90565b6101a48161018f565b036101ab57565b5f80fd5b905035906101bc8261019b565b565b906020828203126101d7576101d4915f016101af565b90565b61017c565b5f0190565b3461020f576101f96101f43660046101be565b611215565b610201610172565b8061020b816101dc565b0390f35b610178565b5f91031261021e57565b61017c565b90565b90565b90565b61024061023b61024592610223565b610229565b610226565b90565b610252603261022c565b90565b61025d610248565b90565b61026990610226565b9052565b9190610280905f60208501940190610260565b565b346102b257610292366004610214565b6102ae61029d610255565b6102a5610172565b9182918261026d565b0390f35b610178565b5f80fd5b908160a09103126102c95790565b6102b7565b908160809103126102dc5790565b6102b7565b5f80fd5b5f80fd5b5f80fd5b909182601f830112156103275781359167ffffffffffffffff831161032257602001926001830284011161031d57565b6102e9565b6102e5565b6102e1565b906101608282031261038957610344815f84016101af565b9261035282602085016102bb565b926103608360c083016102ce565b9261014082013567ffffffffffffffff81116103845761038092016102ed565b9091565b610180565b61017c565b63ffffffff60e01b1690565b6103a39061038e565b9052565b91906103ba905f6020850194019061039a565b565b346103f0576103ec6103db6103d236600461032c565b93929092611225565b6103e3610172565b918291826103a7565b0390f35b610178565b346104295761042561041461040b36600461032c565b9392909261123e565b61041c610172565b918291826103a7565b0390f35b610178565b1c90565b90565b61044590600861044a930261042e565b610432565b90565b906104589154610435565b90565b61046760025f9061044d565b90565b3461049a5761047a366004610214565b61049661048561045b565b61048d610172565b9182918261026d565b0390f35b610178565b6104a881610226565b036104af57565b5f80fd5b905035906104c08261049f565b565b909160e0828403126104f7576104f46104dd845f85016104b3565b936104eb81602086016102bb565b9360c0016101af565b90565b61017c565b3461052b5761051561050f3660046104c2565b916114f2565b61051d610172565b80610527816101dc565b0390f35b610178565b9081606091031261053e5790565b6102b7565b90610140828203126105a05761055b815f84016101af565b9261056982602085016102bb565b926105778360c08301610530565b9261012082013567ffffffffffffffff811161059b5761059792016102ed565b9091565b610180565b61017c565b90565b6105bc6105b76105c1926105a5565b610229565b6105a5565b90565b6105cd906105a8565b9052565b62ffffff1690565b6105e2906105d1565b9052565b60409061060f610616949695939661060560608401985f85019061039a565b60208301906105c4565b01906105d9565b565b3461064f5761064b61063761062e366004610543565b93929092611da5565b610642939193610172565b938493846105e6565b0390f35b610178565b7f000000000000000000000000000000000000000000000000000000000000000090565b61068c61068761069192610184565b610229565b610184565b90565b61069d90610678565b90565b6106a990610694565b90565b6106b5906106a0565b9052565b91906106cc905f602085019401906106ac565b565b346106fe576106de366004610214565b6106fa6106e9610654565b6106f1610172565b918291826106b9565b0390f35b610178565b61070c816105a5565b0361071357565b5f80fd5b9050359061072482610703565b565b916101a0838303126107a15761073e825f85016101af565b9261074c83602083016102bb565b9261075a8160c084016102ce565b92610769826101408501610717565b92610778836101608301610717565b9261018082013567ffffffffffffffff811161079c5761079892016102ed565b9091565b610180565b61017c565b6107af906105a8565b9052565b9160206107d49294936107cd60408201965f83019061039a565b01906107a6565b565b3461080e576107f56107e9366004610726565b95949094939193611de0565b9061080a610801610172565b928392836107b3565b0390f35b610178565b61081c81610184565b0361082357565b5f80fd5b9050359061083482610813565b565b60020b90565b61084581610836565b0361084c57565b5f80fd5b9050359061085d8261083c565b565b610100818303126108a157610876825f83016101af565b9261089e61088784602085016102bb565b936108958160c08601610827565b9360e001610850565b90565b61017c565b346108da576108d66108c56108bc36600461085f565b92919091611e0d565b6108cd610172565b918291826103a7565b0390f35b610178565b34610917576108fe6108f2366004610726565b95949094939193611e25565b9061091361090a610172565b928392836107b3565b0390f35b610178565b9060208282031261093557610932915f016104b3565b90565b61017c565b61094e61094961095392610226565b610229565b610226565b90565b906109609061093a565b5f5260205260405f2090565b5f1c90565b60018060a01b031690565b61098861098d9161096c565b610971565b90565b61099a905461097c565b90565b60a01c90565b60ff1690565b6109b56109ba9161099d565b6109a3565b90565b6109c790546109a9565b90565b6fffffffffffffffffffffffffffffffff1690565b6109eb6109f09161096c565b6109ca565b90565b6109fd90546109df565b90565b60801c90565b610a12610a1791610a00565b6109ca565b90565b610a249054610a06565b90565b610a33610a389161096c565b610432565b90565b610a459054610a27565b90565b610a54610a599161096c565b6109a3565b90565b610a669054610a48565b90565b90565b610a78610a7d9161096c565b610a69565b90565b610a8a9054610a6c565b90565b610a98906003610956565b90610aa45f8301610990565b91610ab05f82016109bd565b91610abd600183016109f3565b91610aca60018201610a1a565b91610ad760028301610a3b565b91610ae460038201610a5c565b91610afd6005610af660048501610a80565b9301610a5c565b90565b610b099061018f565b9052565b151590565b610b1b90610b0d565b9052565b6fffffffffffffffffffffffffffffffff1690565b610b3d90610b1f565b9052565b90565b610b4d90610b41565b9052565b959391989796949290986101008701995f8801610b6d91610b00565b60208701610b7a91610b12565b60408601610b8791610b34565b60608501610b9491610b34565b60808401610ba191610260565b60a08301610bae91610b12565b60c08201610bbb91610b44565b60e001610bc791610b12565b565b34610c0357610bff610be4610bdf36600461091c565b610a8d565b94610bf6989698949194939293610172565b98899889610b51565b0390f35b610178565b91909161016081840312610c7657610c22835f83016101af565b92610c3081602084016102bb565b92610c3e8260c08501610530565b92610c4d836101208301610717565b9261014082013567ffffffffffffffff8111610c7157610c6d92016102ed565b9091565b610180565b61017c565b600f0b90565b610c8a90610c7b565b9052565b916020610caf929493610ca860408201965f83019061039a565b0190610c81565b565b34610ce957610cd0610cc4366004610c08565b94939093929192611e72565b90610ce5610cdc610172565b92839283610c8e565b0390f35b610178565b91909161012081840312610d5b57610d08835f83016101af565b92610d1681602084016102bb565b92610d248260c085016104b3565b92610d328360e083016104b3565b9261010082013567ffffffffffffffff8111610d5657610d5292016102ed565b9091565b610180565b61017c565b34610d9757610d93610d82610d76366004610cee565b94939093929192611e9f565b610d8a610172565b918291826103a7565b0390f35b610178565b610da581610b0d565b03610dac57565b5f80fd5b90503590610dbd82610d9c565b565b610dc881610b1f565b03610dcf57565b5f80fd5b90503590610de082610dbf565b565b919061012083820312610e3557610dfb815f85016102bb565b92610e098260a08301610db0565b92610e32610e1a8460c08501610dd3565b93610e288160e08601610dd3565b93610100016104b3565b90565b61017c565b34610e6e57610e6a610e59610e50366004610de2565b939290926124c6565b610e61610172565b9182918261026d565b0390f35b610178565b919060c083820312610e9b5780610e8f610e98925f86016104b3565b936020016102bb565b90565b61017c565b34610ecf57610eb9610eb3366004610e73565b906126dd565b610ec1610172565b80610ecb816101dc565b0390f35b610178565b610edd81610b41565b03610ee457565b5f80fd5b90503590610ef582610ed4565b565b9190604083820312610f1f5780610f13610f1c925f8601610ee8565b936020016104b3565b90565b61017c565b610f2d90610b41565b90565b90610f3a90610f24565b5f5260205260405f2090565b634e487b7160e01b5f52603260045260245ffd5b5490565b5f5260205f2090565b610f7081610f5a565b821015610f8a57610f82600191610f5e565b910201905f90565b610f46565b610f9a906004610f30565b610fa381610f5a565b821015610fc057610fbd91610fb791610f67565b9061044d565b90565b5f80fd5b34610ff557610ff1610fe0610fda366004610ef7565b90610f8f565b610fe8610172565b9182918261026d565b0390f35b610178565b61100390610694565b90565b9061101090610ffa565b5f5260205260405f2090565b61102c906008611031930261042e565b6109a3565b90565b9061103f915461101c565b90565b611058906110536001915f92611006565b611034565b90565b919061106e905f60208501940190610b12565b565b346110a05761109c61108b6110863660046101be565b611042565b611093610172565b9182918261105b565b0390f35b610178565b909160e0828403126110da576110d76110c0845f85016101af565b936110ce81602086016102bb565b9360c001610827565b90565b61017c565b346111105761110c6110fb6110f53660046110a5565b916126e9565b611103610172565b918291826103a7565b0390f35b610178565b3461114c5761114861113761112b366004610cee565b94939093929192612700565b61113f610172565b918291826103a7565b0390f35b610178565b611161906008611166930261042e565b610971565b90565b906111749154611151565b90565b6111815f80611169565b90565b9190611197905f60208501940190610b00565b565b346111c9576111a9366004610214565b6111c56111b4611177565b6111bc610172565b91829182611184565b0390f35b610178565b5f80fd5b5f1b90565b906111e860018060a01b03916111d2565b9181191691161790565b90565b9061120a61120561121192610ffa565b6111f2565b82546111d7565b9055565b61121f905f6111f5565b565b5f90565b5050505050611232611221565b5063021d0ee760e41b90565b505050505061124b611221565b5063259982e560e01b90565b9061126a929161126561271a565b61126c565b565b9061127f929161127a612784565b611326565b6112876127dc565b565b90565b6112958161018f565b0361129c57565b5f80fd5b356112aa8161128c565b90565b6112b690610678565b90565b6112c2906112ad565b90565b6112d96112d46112de92610b1f565b610229565b610226565b90565b906112ed60ff916111d2565b9181191691161790565b61130090610b0d565b90565b90565b9061131b611316611322926112f7565b611303565b82546112e1565b9055565b9061133b61133660038490610956565b611289565b9061135161134b60038401610a5c565b15610b0d565b6114d65761135e81612804565b908161137d61137761137260048701610a80565b610b41565b91610b41565b036114ba578261142e61141361140e6114389461139e5f61143f99016109bd565b5f146114a0576114096113e26113dd6113b85f85016112a0565b5b936113c55f8a016109bd565b5f146114905760206113d791016112a0565b5b610ffa565b6112b9565b8b6113ee5f8901610990565b906114036113fe60018b01610a1a565b6112c5565b92612827565b610ffa565b6112b9565b87611428611423600186016109f3565b6112c5565b91612872565b60035f9101611306565b8290612935565b9060019161148b6114796114737f289a525e2fe656ccb97ffd0dc6509e3dc75c8b482952235637d2d09f08db42929361093a565b93610ffa565b93611482610172565b9182918261105b565b0390a3565b5f61149b91016112a0565b6113d8565b6114096113e26113dd6114b5602085016112a0565b6113b9565b5f633aaca32d60e21b8152806114d2600482016101dc565b0390fd5b5f631d4ecc5b60e01b8152806114ee600482016101dc565b0390fd5b906114fd9291611257565b565b5f90565b5f90565b9061151f9796959493929161151a612a00565b611524565b909192565b9061153c97969594939291611537612784565b6117e8565b9091926115476127dc565b565b611552816105a5565b0361155957565b5f80fd5b3561156781611549565b90565b90565b61158161157c6115869261156a565b610229565b6105a5565b90565b6115925f61156d565b90565b6115a96115a46115ae9261156a565b610229565b6105d1565b90565b634e487b7160e01b5f52601160045260245ffd5b6115ce906105a5565b600160ff1b81146115de575f0390565b6115b1565b6115f76115f26115fc926105a5565b610229565b610226565b90565b61161361160e61161892610226565b610229565b610b1f565b90565b90565b5490565b61163661163161163b9261156a565b610229565b610226565b90565b600161164a9101610226565b90565b5f5260205f2090565b61165f8161161e565b8210156116795761167160019161164d565b910201905f90565b610f46565b3561168881610d9c565b90565b61169a6116a091939293610ffa565b92610ffa565b90565b5f80fd5b601f801991011690565b634e487b7160e01b5f52604160045260245ffd5b906116cf906116a7565b810190811067ffffffffffffffff8211176116e957604052565b6116b1565b60e01b90565b5f9103126116fe57565b61017c565b61170c90610ffa565b9052565b611719906112c5565b9052565b60409061174661174d949695939661173c60608401985f850190611703565b6020830190610b00565b0190611710565b565b611757610172565b3d5f823e3d90fd5b9190611772905f60208501940190611703565b565b905051906117818261049f565b565b9060208282031261179c57611799915f01611774565b90565b61017c565b6117b56117b06117ba92610b1f565b610229565b610c7b565b90565b6117c690610c7b565b6f7fffffffffffffffffffffffffffffff1981146117e3575f0390565b6115b1565b91939495509195505050506117ff6020830161155d565b61181561180f600160ff1b6105a5565b916105a5565b14611d89576118266020830161155d565b6118386118325f61156d565b916105a5565b1215611d665761186261185d6118586118536020860161155d565b6115c5565b6115e3565b6115ff565b9261186c82612804565b9261188161187c60048690610f30565b61161b565b9361188b8561161e565b6118a461189e611899610248565b610226565b91610226565b105f14611d59576118b48561161e565b5b956118bf5f611622565b965b876118d46118ce83610226565b91610226565b1015611d31576118ee6118e8888a90611656565b9061044d565b966119036118fe60038a90610956565b611289565b9861191961191360038c01610a5c565b15610b0d565b8015611d0b575b611cfc5761192f5f8b016109bd565b61194b6119456119405f8a0161167e565b610b0d565b91610b0d565b14611ced578961196f6119696119646001889401610a1a565b610b1f565b91610b1f565b10611cd5575050505061199b916119955f9261198e8460038b01611306565b8790612935565b0161167e565b5f14611cac576119b860206119b15f85016112a0565b93016112a0565b915b91926119c860018601610a1a565b926119f27f00000000000000000000000000000000000000000000000000000000000000006106a0565b90630b0d9c0990611a045f8901610990565b928692813b15611ca7575f611a2c91611a378296611a20610172565b988997889687956116ee565b85526004850161171d565b03925af18015611ca257611c76575b50611a707f00000000000000000000000000000000000000000000000000000000000000006106a0565b9363a584119481863b15611c7157611aa796611a9c5f8094611a90610172565b9a8b95869485936116ee565b83526004830161175f565b03925af1948515611c6c57611acc611b1492611ad192611b5598611c40575b50610ffa565b6112b9565b611afa7f00000000000000000000000000000000000000000000000000000000000000006106a0565b611b0e611b0960018a016109f3565b6112c5565b91612872565b6020611b3f7f00000000000000000000000000000000000000000000000000000000000000006106a0565b6311da60b490611b4d610172565b9687926116ee565b8252815f81611b66600482016101dc565b03925af1938415611c3b57611be0611bf194611bec94611be794600194611bff99611c0f575b50905f91611bd8611bc6611bc07f289a525e2fe656ccb97ffd0dc6509e3dc75c8b482952235637d2d09f08db42929361093a565b93610ffa565b93611bcf610172565b9182918261105b565b0390a36117a1565b95016109f3565b6117a1565b6117bd565b6315d7892d60e21b92612a5d565b91611c0c5f929392611595565b90565b611c2f9060203d8111611c34575b611c2781836116c5565b810190611783565b611b8c565b503d611c1d565b61174f565b611c5f905f3d8111611c65575b611c5781836116c5565b8101906116f4565b5f611ac6565b503d611c4d565b61174f565b6116a3565b611c95905f3d8111611c9b575b611c8d81836116c5565b8101906116f4565b5f611a46565b503d611c83565b61174f565b6116a3565b9080611cc85f611cc16020611cce95016112a0565b92016112a0565b9061168b565b91906119ba565b90929850611ce59197505b61163e565b9690956118c1565b90929850611ce5919750611ce0565b90929850611ce5919750611ce0565b5089611d2b611d25611d206002429401610a3b565b610226565b91610226565b11611920565b50505050505050506315d7892d60e21b611d49611589565b91611d565f929392611595565b90565b611d61610248565b6118b5565b5050506315d7892d60e21b611d79611589565b91611d865f929392611595565b90565b5f630590fb9f60e01b815280611da1600482016101dc565b0390fd5b90611dcb94939291611db5611221565b611dbd6114ff565b611dc5611503565b91611507565b909192565b5f90565b611ddd5f61156d565b90565b50505050505050611def611221565b50611df8611dd0565b50633615df3f60e11b90611e0a611dd4565b90565b50505050611e19611221565b50636fe7e6eb60e01b90565b50505050505050611e34611221565b50611e3d611dd0565b506327c18fbf60e21b90611e4f611dd4565b90565b5f90565b611e6a611e65611e6f9261156a565b610229565b610c7b565b90565b505050505050611e80611221565b50611e89611e52565b5063b47b2fb160e01b90611e9c5f611e56565b90565b505050505050611ead611221565b50635b54587d60e11b90565b5f90565b90611ed39594939291611ece612784565b6122cb565b90611edc6127dc565b565b611ef2611eed611ef79261156a565b610229565b610b1f565b90565b611f0390610226565b5f198114611f115760010190565b6115b1565b90611f225f19916111d2565b9181191691161790565b90565b90611f44611f3f611f4b9261093a565b611f2c565b8254611f16565b9055565b611f5e611f6491939293610226565b92610226565b8201809211611f6f57565b6115b1565b90611f87611f80610172565b92836116c5565b565b611f94610100611f74565b90565b90611fa19061018f565b9052565b90611faf90610b0d565b9052565b90611fbd90610b1f565b9052565b90611fcb90610226565b9052565b90611fd990610b41565b9052565b611fe7905161018f565b90565b611ff49051610b0d565b90565b60a01b90565b9061200c60ff60a01b91611ff7565b9181191691161790565b9061202b612026612032926112f7565b611303565b8254611ffd565b9055565b6120409051610b1f565b90565b9061205e6fffffffffffffffffffffffffffffffff916111d2565b9181191691161790565b61207c61207761208192610b1f565b610229565b610b1f565b90565b90565b9061209c6120976120a392612068565b612084565b8254612043565b9055565b60801b90565b906120c96fffffffffffffffffffffffffffffffff19916120a7565b9181191691161790565b906120e86120e36120ef92612068565b612084565b82546120ad565b9055565b6120fd9051610226565b90565b61210a9051610b41565b90565b6121169061096c565b90565b9061212e61212961213592610f24565b61210d565b8254611f16565b9055565b906121f960e060056121ff9461215c5f82016121565f8801611fdd565b906111f5565b6121745f820161216e60208801611fea565b90612016565b61218d6001820161218760408801612036565b90612087565b6121a6600182016121a060608801612036565b906120d3565b6121bf600282016121b9608088016120f3565b90611f2f565b6121d8600382016121d260a08801611fea565b90611306565b6121f1600482016121eb60c08801612100565b90612119565b019201611fea565b90611306565b565b9061220b91612139565b565b61221690610694565b90565b1b90565b919060086122389102916122325f1984612219565b92612219565b9181191691161790565b91906122586122536122609361093a565b611f2c565b90835461221d565b9055565b9081549168010000000000000000831015612294578261228c91600161229295018155611656565b90612242565b565b6116b1565b6040906122c26122c994969593966122b860608401985f850190610b12565b6020830190610b34565b0190610b34565b565b95949593929350836122e56122df5f611ede565b91610b1f565b146124aa57806122f490612804565b916122ff6002610a3b565b61230881611efa565b612313906002611f2f565b963390829087908790429061232791611f4f565b600191889332336123379061018f565b906123419061018f565b149561234b611f89565b975f89019061235991611f97565b602088019061236791611fa5565b604087019061237591611fb3565b606086019061238391611fb3565b608085019061239191611fc1565b60a084019061239f91611fa5565b60c08301906123ad91611fcf565b60e08201906123bb91611fa5565b6003886123c791610956565b906123d191612201565b5f1461242f9261241c6124026123fd6124289561242395612499575f6123f791016112a0565b5b610ffa565b6112b9565b3361240c3061220d565b906124168a6112c5565b92612827565b6004610f30565b61161b565b8590612264565b833391612449600561244360038990610956565b01610a5c565b93909361249461248261247c7fd574d04cee604aaf67e088da6c397c04011b1ed900bdbb15d090bd2e673227a09561093a565b95610ffa565b9561248b610172565b93849384612299565b0390a3565b60206124a591016112a0565b6123f8565b5f636c2b7e2d60e11b8152806124c2600482016101dc565b0390fd5b906124db949392916124d6611eb9565b611ebd565b90565b906124f0916124eb612784565b6124fa565b6124f86127dc565b565b61250e61250960038390610956565b611289565b918161252b6125256125206002610a3b565b610226565b91610226565b10156126c1573361254e6125486125435f8701610990565b61018f565b9161018f565b036126a65761256861256260038501610a5c565b15610b0d565b61268a5761257581612804565b918261259461258e61258960048801610a80565b610b41565b91610b41565b0361266e5761260b6125e66125e15f946125bf612612976125b88860038c01611306565b8690612935565b6125ca8689016109bd565b861461265d57856125db91016112a0565b5b610ffa565b6112b9565b6125f1848701610990565b612605612600600189016109f3565b6112c5565b91612872565b9201610990565b61264561263f7fc0362da6f2ff36b382b34aec0814f6b3cdf89f5ef282a1d1f114d0c0b036d5969361093a565b91610ffa565b9161264e610172565b80612658816101dc565b0390a3565b602061266991016112a0565b6125dc565b5f633aaca32d60e21b815280612686600482016101dc565b0390fd5b5f631d4ecc5b60e01b8152806126a2600482016101dc565b0390fd5b5f6282b42960e81b8152806126bd600482016101dc565b0390fd5b5f63d36d896560e01b8152806126d9600482016101dc565b0390fd5b906126e7916124de565b565b5050506126f4611221565b50636e4c1aa760e11b90565b50505050505061270e611221565b5063e1b4af6960e01b90565b3361273561272f61272a5f610990565b61018f565b9161018f565b0361273c57565b5f6354a4cdb960e11b815280612754600482016101dc565b0390fd5b90565b61276f61276a61277492612758565b610229565b610226565b90565b612781600261275b565b90565b61278c612a77565b6127ae612797612777565b5f6127a86127a3612aec565b612b00565b01611f2f565b565b90565b6127c76127c26127cc926127b0565b610229565b610226565b90565b6127d960016127b3565b90565b6127fe6127e76127cf565b5f6127f86127f3612aec565b612b00565b01611f2f565b565b5f90565b60a09061280f612800565b50816040519182372090565b61282490610694565b90565b92906128449261283e928592919091600193612b07565b15610b0d565b61284b5750565b61285761286e9161281b565b5f918291635274afe760e01b835260048301611184565b0390fd5b9161288b91612885918491600192612b80565b15610b0d565b6128925750565b61289e6128b59161281b565b5f918291635274afe760e01b835260048301611184565b0390fd5b6128c86128ce91939293610226565b92610226565b82039182116128d957565b6115b1565b634e487b7160e01b5f52603160045260245ffd5b612904916128fe611eb9565b91612242565b565b61290f8161161e565b801561293057600190039061292d6129278383611656565b906128f2565b55565b6128de565b612943612948916004610f30565b61161b565b6129515f611622565b5b8061296d6129676129628561161e565b610226565b91610226565b10156129fb57612987612981838390611656565b9061044d565b61299961299385610226565b91610226565b146129ac576129a79061163e565b612952565b6129f992506129f4906129ee6129e76129e1856129db6129cb8861161e565b6129d560016127b3565b906128b9565b90611656565b9061044d565b9184611656565b90612242565b612906565b565b505050565b33612a3b612a35612a307f00000000000000000000000000000000000000000000000000000000000000006106a0565b61018f565b9161018f565b03612a4257565b5f6282b42960e81b815280612a59600482016101dc565b0390fd5b90612a666114ff565b5060018060801b03169060801b1790565b612a7f612bea565b612a8557565b5f633ee5aeb560e01b815280612a9d600482016101dc565b0390fd5b90565b612ab8612ab3612abd92612aa1565b6111d2565b610b41565b90565b612ae97f9b779b17422d0df92223018b32b4d1fa46e071723d6817e2486d003becc55f00612aa4565b90565b612af4612800565b50612afd612ac0565b90565b90565b5f90565b91949394929092612b16612b03565b506323b872dd60e01b93604051945f525f1960601c166004525f1960601c1660245260445260205f60648180855af19360015f5114851615612b5e575b50506040525f606052565b8492941516612b77575f903b113d151616915f80612b53565b833d5f823e3d90fd5b9091939293612b8d612b03565b5063a9059cbb60e01b92604051935f525f1960601c1660045260245260205f60448180855af19360015f5114851615612bc8575b5050604052565b8492941516612be1575f903b113d151616915f80612bc1565b833d5f823e3d90fd5b612bf2612b03565b50612c0d5f612c07612c02612aec565b612b00565b01610a3b565b612c26612c20612c1b612777565b610226565b91610226565b149056fea2646970667358221220cde24880c43e13ba45cd9253eefd20ce94c3d032ad3d27bb8b8c7106d819822864736f6c634300081a0033","linkReferences":{}},"methodIdentifiers":{"MAX_ITERATIONS()":"1d92c26d","POOL_MANAGER()":"62308e85","afterAddLiquidity(address,(address,address,uint24,int24,address),(int24,int24,int256,bytes32),int256,int256,bytes)":"9f063efc","afterDonate(address,(address,address,uint24,int24,address),uint256,uint256,bytes)":"e1b4af69","afterInitialize(address,(address,address,uint24,int24,address),uint160,int24)":"6fe7e6eb","afterRemoveLiquidity(address,(address,address,uint24,int24,address),(int24,int24,int256,bytes32),int256,int256,bytes)":"6c2bbe7e","afterSwap(address,(address,address,uint24,int24,address),(bool,int256,uint160),int256,bytes)":"b47b2fb1","allowedBots(address)":"d3d368c0","beforeAddLiquidity(address,(address,address,uint24,int24,address),(int24,int24,int256,bytes32),bytes)":"259982e5","beforeDonate(address,(address,address,uint24,int24,address),uint256,uint256,bytes)":"b6a8b0fa","beforeInitialize(address,(address,address,uint24,int24,address),uint160)":"dc98354e","beforeRemoveLiquidity(address,(address,address,uint24,int24,address),(int24,int24,int256,bytes32),bytes)":"21d0ee70","beforeSwap(address,(address,address,uint24,int24,address),(bool,int256,uint160),bytes)":"575e24b4","cancelOrder(uint256,(address,address,uint24,int24,address))":"c3e0858b","nextOrderId()":"2a58b330","orders(uint256)":"a85c38ef","poolOrders(bytes32,uint256)":"d10c151d","postOrder((address,address,uint24,int24,address),bool,uint128,uint128,uint256)":"c0ffd5e3","sentinel()":"f58c251c","setSentinel(address)":"09dac061","triggerOrder(uint256,(address,address,uint24,int24,address),address)":"3ded1cb8"},"id":23}